:020000002C2BA7
:08000600FA1FF213003008009C
:10000E007B15FB1F11280130F300F201F101F00105
:08001E00FA0DF20CFF3008009E
:10002600710DF80DF90D7408F8027508031C750FAB
:10003600F902F00DF10D0F30FC00710DF80DF90D00
:100046007408701C2C28F8027508031C750FF90239
:100056003128F80775080318750FF907F00DF10D2B
:10006600FC0B202870183D287408F807750803183B
:08007600750FF90700000800F6
:0E007E00F201F101F001F801F3010030080079
:06008C00FB15FF30080027
:100092007B14FB1F5428F201FA1FFF30F200F1001B
:0A00A200F000FA0DF20CFF30080028
:1000AC00FB14FB1F6028FF30F300F200F100F0009E
:0800BC00FA0DF20CFF30080000
:1000C40083120313FB01FA01F9018030F800F10CEB
:1000D400F00C031C76287408F90775080318750FCB
:1000E400FA070318FB0A0310F01F7E287408FA07A6
:1000F40075080318750FFB07FB0CFA0CF90CF80CC8
:10010400031C69287B08F3007A08F2007908F100DF
:060114007808F00008006D
:10011A00831203137408003A031D9C287508003AD9
:10012A00031D9C28FF30F0007F30F100F528831270
:10013A000313FD01F901F801710870040319003471
:10014A0071087506FA00FA1BFD09FB01F51FB228B2
:10015A00F409F509F40A0319F50AF11FB928F00997
:10016A00F109F00A0319F10A71087504FA00FA1B79
:10017A00CE2813207B18E128FD1F0034F009F1096D
:10018A00F00A0319F10AF809F909F80A0319F90A30
:10019A000034F51FDD28F11BD9287108F900700811
:1001AA00F800F101F001C128F101F001F00A003470
:1001BA00F109F009FB0ABE28F80A0319F90A7408BA
:1001CA007802031DC12875087902031DC128F901A7
:1001DA00F801F00A0319F10AF11FC1280000FF34DF
:0201EA0008000B
:1001EC00A0017208031D0B297108F2007008F100C0
:1001FC00F001A0157208031D0B297108F200F10122
:10020C00A01120167208031919292008F302031DE6
:10021C00031C1D290310F21B2129F00DF10DF20D09
:10022C00F30B11291D290130FC003F202429023039
:0E023C00FC00072024290430FC0003200800E9
:10024A00831203137008F8007108F000F101F2013B
:10025A00F301FB01FC019630F300FA017008F1008A
:0C026A007808F000F801F201F62008000E
:100276008316031307110C30831297000430920083
:0C028600F93083169200831295010800E5
:10029200831203132508F0002608F100E830F40069
:1002A2000330F5006220B430F400F5018D207008AF
:1002B200E83EF30003300318013E7107F4000A30F0
:1002C200F2007308F0007408F100720803196E2935
:1002D200F00DF10D7010FF3E67292030F4004E3012
:1002E200F5008D207008F2007108F300F30CF20C97
:1002F200F313F30CF20CF31372089500CF30970549
:1003020003307005F2007208F000F00D7010F00D6D
:100312007010F00D7010F00D701070089704080046
:1003220083120313FB01FC01FA0173080319D0299C
:10033200F2178E30F302F31BA1290319A129D32945
:10034200F309F30A08307302031CB629F300F10D16
:100352007208F100F20108307302031CB629F10D94
:10036200F1017308031D0310BE2973080319BE2986
:100372000310F20CF10CF30BB9297B1B711CC82979
:10038200031CC829F10A0319F20AF21BDF29FA1F1A
:10039200E229F209F109F10A0319F20AE229F2014A
:1003A200F101E2297B14FB1FE529F201FA1FE5297D
:1003B200FF30F200F100FA0DF20CE5290130FC00E9
:1003C200E7290030FC00E729FF30FC00FC08031994
:0E03D200EB2949207108F0007208F1000800C4
:1003E000831203137408003A031D0B2A7508003AA0
:1003F000031D0B2A7608003A031D0B2A7708003AE2
:10040000031D0B2AFF30F000FF30F1007F30F200B7
:10041000FF30F300A62A83120313770803199A2AE0
:10042000730803199D2A720876068039FA00F217BC
:10043000F617A0017208F8007108FC007008FD00B2
:100440007408FD027508031C750FFC027608031C76
:10045000760FF802F801FC01FD01031C362A031097
:10046000F20CF10CF00CF80C0130A0007708F3024C
:10047000031C402A7E302007F3070318A02A452AD0
:100480007E302007F307031CA32A1830FA07FD0D5E
:10049000FC0DF80DF00DF10DF20DA00D7408F00239
:1004A0007508031C750FF1027608031C760FF20223
:1004B000760DA004201C5E2A7D14692A7408F007BA
:1004C00075080318750FF10776080318760AF20706
:1004D0007D10FA031F307A05031D472A7B1B7D1C04
:1004E000902A0310F00DF10DF20DA00D7408F0022A
:1004F0007508031C750FF1027608031C760FF202D3
:10050000760D20040139FD070318FC0A0319F80AC7
:10051000031D902AF80CFC0CFD0CF30A0319A02A09
:10052000FA1FF8137808F2007C08F1007D08F0004B
:100530000030A52A01304620A52A02303F20A52AF6
:0E05400004305620A52A0830072000000800CD
:10054E0083120313881DAE2A88140811B02A88104E
:04055E000811080078
:0E056200831203130712871207138713080072
:0E05700083120313071287160713871708005C
:0E057E0083120313071287160717871308004E
:10058C003B213E3083168600870183128701831638
:10059C0008108810081188150816073081001030D3
:0605AC008312900008001C
:0E05B20083120313071687120717871308001A
:1005C0008312031306140330FD00FD0BE52A061009
:1005D0008618EB2AE82A8F018E011014861CF12A56
:1005E000EE2A0F08F100F0010E08F0040030F104CB
:1005F00010102521F630F4002830F5005830F600B0
:0A0600008230F700F021912108007C
:10060A005A3083120313A5000030A6004921063090
:10061A00FB001330FC00AD30FD00FD0B122BFC0B70
:10062A00122BFB0B122B00000000A501A601492189
:10063A000630FB001330FC00AD30FD00FD0B232B10
:0E064A00FC0B232BFB0B232B000000000800F1
:10065800C6220523081E982BA722E0227008A100B5
:100668007108A20000307102031D3C2B1430700287
:100678000318882BB1220330FB008A30FC00553068
:10068800FD00FD0B452BFC0B452BFB0B452B000000
:100698000000B8220230FB000430FC00BA30FD0034
:1006A800FD0B542BFC0B542BFB0B542B0000B122DD
:1006B8000330FB008A30FC005530FD00FD0B622B37
:1006C800FC0B622BFB0B622B00000000BF220230E8
:1006D800FB00C730FC008830FD00FD0B712BFC0BC4
:1006E800712BFB0B712B0000B1220630FB0013307D
:1006F800FC00AD30FD00FD0B7F2BFC0B7F2BFB0BB3
:100708007F2B00000000972BD9220330FB008A3092
:10071800FC005530FD00FD0B8F2BFC0B8F2BFB0BCA
:100728008F2B000000002E2BB122881008119B2B64
:02400E004A2F37
:00000001FF
